S00F00005365676D656E742E7372656342
S11300000C9434000C9449000C9449000C9449005D
S11300100C9449000C9449000C9449000C94490038
S11300200C9449000C9449000C9449000C94490028
S11300300C9449000C94A7000C9449000C944900BA
S11300400C9449000C9449000C9449000C94490008
S11300500C9449000C9449000C9449000C944900F8
S11300600C9449000C94490011241FBECFEFD8E032
S1130070DEBFCDBF11E0A0E0B1E0ECE6F2E002C0EB
S113008005900D92AE30B107D9F70E9470000C9420
S113009034010C940000FC01408121E030E002C0F6
S11300A0220F331F6A95E2F7242B20830895FC0165
S11300B0908121E030E002C0220F331F6A95E2F7FD
S11300C02095292320830895FC01408121E030E01C
S11300D002C0220F331F6A95E2F7242B2083089570
S11300E00E94B10060E080E00E94C100E1E8F0E01D
S11300F080818B7F8083808183608083EFE6F0E062
S113010080818160808378942FEB87E299E021508D
S113011080409040E1F700C0000060E080E00E9471
S1130120C100C1E0D0E02FEB87E299E0215080408C
S11301309040E1F700C0000060E08C2F0E94C100F5
S11301402196CA30D10579F7C0E0D0E0ECCF1F92F8
S11301500F920FB60F9211240F900FBE0F901F90A5
S1130160189564E08AE290E00E944B0067E08AE21E
S113017090E00E944B0060E084E290E00E944B001B
S113018008951F93CF93DF93E82FF0E0EC5FFE4FC9
S11301901081E62FF0E0E050FF4FD08164E08BE265
S11301A090E00E94570067E08BE290E00E945700C5
S11301B060E085E290E00E94570085E08A95F1F7BF
S11301C00000C8E010FF06C060E085E290E00E94F5
S11301D0640005C060E085E290E00E94570085E07D
S11301E08A95F1F7000067E08BE290E00E946400DA
S11301F085E08A95F1F7000067E08BE290E00E94C9
S113020057001695C150F1F6C8E0D0FF06C060E073
S113021085E290E00E94640005C060E085E290E021
S11302200E94570085E08A95F1F7000067E08BE2B1
S113023090E00E94640085E08A95F1F7000067E091
S11302408BE290E00E945700D695C150F1F664E02D
S11302508BE290E00E94640085E08A95F1F700004B
S10F0260DF91CF911F910895F894FFCF17
S111026C10204080039F250D9949411F011960
S9030000FC
