S00B00006932632E737265631B
S11300000C9434000C9451000C9451000C94510045
S11300100C9451000C9451000C9451000C94510018
S11300200C9451000C9451000C9451000C94510008
S11300300C9451000C946C000C9451000C945100DD
S11300400C9451000C9451000C9433010C946101F4
S11300500C9451000C9451000C9451000C945100D8
S11300600C9451000C94510011241FBECFEFD8E022
S1130070DEBFCDBF11E0A0E0B1E0EEEFF3E002C0DF
S113008005900D92A032B107D9F721E0A0E2B1E0CA
S113009001C01D92A536B207E1F70E9453000C94EB
S11300A0FD010C9400000E94F70087E690E00E9496
S11300B08B01E1E8F0E080818A7F80838081826027
S11300C08083EFE6F0E0808181608083789481E032
S11300D091E00E94B901FFCF1F920F920FB60F92C9
S11300E011242F933F934F935F936F937F938F9339
S11300F09F93AF93BF93EF93FF93CF93DF9300D07E
S1130100CDB7DEB780E390E39A83898380910001C1
S1130110823051F020F4813009F454C050C083304F
S1130120C9F0843079F14BC089EB0E9406010E942A
S113013024014AE0BE016F5F7F4F90E00E94C80136
S1130140CE0101960E94B9010E942F0183E08093A1
S1130150000138C089EB0E9406010E9424014AE094
S1130160BE016F5F7F4F90E00E94C801CE010196EF
S11301700E94B9018CE191E00E94B90181E0809371
S1130180000120C04AE0BE016F5F7F4F8CE590E024
S11301900E94C8010E9424014AE0BE016F5F7F4FA4
S11301A090E00E94C801CE0101960E94B9018CE141
S11301B091E00E94B90181E08093000103C081E0D5
S11301C0809300010F900F90DF91CF91FF91EF91F9
S11301D0BF91AF919F918F917F916F915F914F915B
S11301E03F912F910F900FBE0F901F90189587B1DC
S11301F08F7C87B988B1806388B9E9EBF0E08081AE
S11302008C7F808388E98093B800089594EA909362
S1130210BC00ECEBF0E090819923ECF78093BB00F9
S113022084E88093BC00ECEBF0E080818823ECF759
S11302309091B900987F983129F081E0903419F4B5
S113024080E0089580E0089584EC8093BC00ECEB9A
S1130250F0E080818823ECF78091BB00089584E965
S11302608093BC0008951F920F920FB60F92112431
S11302702F938F939F93EF93FF938091C0002091CE
S1130280C6008C71E0912201EF5FEF719091210122
S1130290E91739F0E0932201F0E0EB5DFE4F208393
S11302A001C082E090912001892B80932001FF916D
S11302B0EF919F918F912F910F900FBE0F901F90F0
S11302C018951F920F920FB60F9211248F939F933C
S11302D0EF93FF939091240180912301981769F083
S11302E0E0912301EF5FEF71E0932301F0E0EB5B1A
S11302F0FE4F80818093C60005C0E1ECF0E0808170
S11303008F7D8083FF91EF919F918F910F900FBE0E
S11303100F901F90189510922401109223011092AF
S113032022011092210199231CF422E02093C000A1
S113033090789093C5008093C40088E98093C100AD
S113034086E08093C2000895209124012F5F2F71CD
S1130350909123012917E1F3E22FF0E0EB5BFE4FCC
S1130360808320932401E1ECF0E08081806280832B
S11303700895CF93DF93EC018881882331F021968F
S11303800E94A40189918111FBCFDF91CF9108953F
S1130390BB274A3031F4992322F4BDE2909581952C
S11303A09F4F0C94D401BB27FB015527AA27880F24
S11303B0991FAA1FA41710F0A41B83955051B9F7D5
S11303C0A05DAA3308F0A95DA193009779F7B11154
S11303D0B1931192CB010C94ED01DC01FC01672F68
S11303E071917723E1F7329704C07C916D93708308
S11103F06291AE17BF07C8F30895F894FFCFCB
S11303FE030D0A5363616E204932432D62757320D7
S113040E666F7220646576696365733A0D0A00003F
S9030000FC
