S00B00006C63642E73726563E6
S11300000C9434000C9451000C9451000C94510045
S11300100C9451000C9451000C9451000C94510018
S11300200C9451000C9477010C9451000C945100E1
S11300300C9451000C9451000C9451000C945100F8
S11300400C9451000C9451000C9451000C945100E8
S11300500C9451000C9451000C9451000C945100D8
S11300600C9451000C94510011241FBECFEFD8E022
S1130070DEBFCDBF11E0A0E0B1E0EEE3F4E002C0EA
S113008005900D92A830B107D9F721E0A8E0B1E0BE
S113009001C01D92AB30B207E1F70E9448010C94F5
S11300A01D020C94000085B1826085B985E08A95B3
S11300B0F1F7000085B18D7F85B90895CF93C82FDE
S11300C0662321F085B1816085B903C085B18E7F37
S11300D085B98AB180618AB98AB180628AB98AB1E4
S11300E080648AB98AB180688AB98BB18F778BB9F9
S11300F08BB18F7B8BB98BB18F7D8BB98BB18F7E9D
S11301008BB9CC231CF48BB180688BB9C6FF03C0B8
S11301108BB180648BB9C5FF03C08BB180628BB98E
S1130120C4FF03C08BB180618BB90E9453008BB1B3
S11301308F778BB98BB18F7B8BB98BB18F7D8BB95B
S11301408BB18F7E8BB9C3FF03C08BB180688BB931
S1130150C2FF03C08BB180648BB9C1FF03C08BB1F4
S113016080628BB9C0FF03C08BB180618BB90E94E0
S113017053008BB180618BB98BB180628BB98BB129
S113018080648BB98BB180688BB987EB9BE0019756
S1130190F1F700C00000CF91089560E00E945E0076
S11301A00895611104C080580E94CD0008958054C0
S11301B00E94CD00089581E00E94CD00089561E081
S11301C00E945E000895CF93DF93FC0103C00E9458
S11301D0DF00FE01EF01219680818111F8CFDF91CC
S11301E0CF910895CF93C82F84B1816084B98AB127
S11301F080628AB984B1826084B98AB180618AB923
S11302008AB180628AB98AB180648AB98AB1806805
S11302108AB98FEF99EF0197F1F700C000008BB115
S113022080628BB98BB180618BB90E9453008FE1DE
S11302309EE40197F1F700C000000E9453008FEF85
S113024090E00197F1F700C000000E9453008FEF87
S113025090E00197F1F700C000008BB18F7E8BB95D
S11302600E9453008FEF90E00197F1F700C0000067
S113027088E20E94CD0088E00E94CD000E94DB004D
S113028086E00E94CD008C2F0E94CD00CF9108956E
S11302908CE00E94F20060E081E00E94D10080E0E6
S11302A091E00E94E30060E08BE00E94D10081E6CF
S11302B00E94DF0061E081E00E94D10082E60E949A
S11302C0DF0061E08BE00E94D10083E60E94DF0042
S11302D0E1EBF0E080818D7F808380818560808385
S11302E0E0E7F0E08081816080837894FFCF1F9203
S11302F00F920FB60F9211242F933F934F935F9356
S11303006F937F938F939F93AF93BF93EF93FF93D9
S1130310CF93DF9300D0CDB7DEB780E290E29A832B
S1130320898380910A018F5F80930A018630D8F116
S113033010920A01809109018F5F809309018A302C
S113034038F0809108018F5F8093080110920901B1
S1130350809108018C3310F01092080160E084E071
S11303600E94D100809108018A3048F490E04AE06C
S1130370BE016F5F7F4FC0960E94E80107C04AE04C
S1130380BE016F5F7F4F90E00E94E801CE010196AD
S11303900E94E30060E087E00E94D100809109019F
S11303A0805D0E94DF000F900F90DF91CF91FF914D
S11303B0EF91BF91AF919F918F917F916F915F91D9
S11303C04F913F912F910F900FBE0F901F90189552
S11303D0BB274A3031F4992322F4BDE290958195EC
S11303E09F4F0C94F401BB27FB015527AA27880FC4
S11303F0991FAA1FA41710F0A41B83955051B9F795
S1130400A05DAA3308F0A95DA193009779F7B11113
S1130410B1931192CB010C940D02DC01FC01672F06
S113042071917723E1F7329704C07C916D937083C7
S11104306291AE17BF07C8F30895F894FFCF8A
S10B043E30303A30302E30005A
S9030000FC
