S00C00004C6564732E7372656390
S11300000C9434000C943E000C943E000C943E007E
S11300100C943E000C943E000C943E000C943E0064
S11300200C943E000C943E000C943E000C943E0054
S11300300C943E000C943E000C943E000C943E0044
S11300400C943E000C943E000C943E000C943E0034
S11300500C943E000C943E000C943E000C943E0024
S11300600C943E000C943E0011241FBECFEFD8E048
S1130070DEBFCDBF0E9440000C9455000C940000DC
S1130080259A2D983C9A88B1807188B956985E9AC1
S113009020E290E14E99FECF85B1822785B988B1DF
S11100A0892788B94E9BFECFF5CFF894FFCF89
S9030000FC
