:100000000C9434000C943E000C943E000C943E0082
:100010000C943E000C943E000C943E000C943E0068
:100020000C943E000C943E000C943E000C943E0058
:100030000C943E000C943E000C943E000C943E0048
:100040000C943E000C943E000C943E000C943E0038
:100050000C943E000C943E000C943E000C943E0028
:100060000C943E000C943E0011241FBECFEFD8E04C
:10007000DEBFCDBF0E9440000C94D7000C9400005E
:100080003C9A44983B9A43983A9A4298259A2D98DC
:10009000249A2C985098589A30E020E080E090E024
:1000A00061E0E1E0F0E0A0E0D0E214E0C8E0B0E11F
:1000B00048991BC02627489BFECF833091055CF0F2
:1000C00075B1AF01082E02C0440F551F0A94E2F724
:1000D000472745B90AC078B1AF01082E02C0440FC6
:1000E000551F0A94E2F7472748B9222309F38230C3
:1000F000910529F134F4009759F08130910579F098
:1001000045C08330910559F184309105C1F13EC05D
:1001100035B13C2735B938B13B2738B939C033231D
:1001200039F038B13B2738B938B13C2738B930C03D
:1001300038B1312738B938B13C2738B92CC033230E
:1001400039F038B13C2738B938B1312738B920C037
:1001500035B13D2735B938B1312738B91CC0332303
:1001600039F038B1312738B935B13D2735B910C02C
:1001700035B13B2735B935B13D2735B90CC035B15F
:100180003D2735B935B13B2735B905C0332319F0C3
:100190000196362F02C001973A2F4FEF53EC79E0CA
:1001A000415050407040E1F700C0000081CFF8940A
:0201B000FFCF7F
:00000001FF
